:1003F6005000003F065B4F666D7D077F6F777C3947
:030406005E7971AB
:100394001202E91203E1E4900010F0900010E0FF73
:1003A400C3941050F174002FF582E43400F583E017
:1003B400F5F87FE87E031203C5900010E004F08096
:0103C400DA5E
:1002E9009000117403F0A374C0F07B017A007911B6
:1002F900E4FF1200099000117403F0E4A3F074C044
:10030900F07F011200039000117403F0E4A3F0746C
:100319008EF07F021200039000117403F0E4A3F041
:100329007480F07B017A0079117F03120009900033
:10033900117403F0E4A3F07434F07B017A007911AD
:050349007F0402000921
:060003007B017A00791177
:10000900EFD3940740037F012212034EFED39403DA
:1000190040037F0222EF7041EE700B900001120342
:1000290067F45293529412034EB4010B90000112DB
:1000390003674293F4529412034EFEB4020A9000ED
:100049000112036742934294EEB4030D900001122A
:100059000367FEF45293EE4294EF64017043120376
:100069004EFE700B900001120367F452915292EE0A
:10007900B4010B9000011203674291F452921203EA
:100089004EB4020A90000112036742914292120390
:100099004EB4030D900001120367FEF45291EE4233
:1000A90092EF6402704312034EFE700B900001122E
:1000B9000367F452955296EEB4010B9000011203B6
:1000C900674295F4529612034EB4020A9000011247
:1000D90003674295429612034EB4030D9000011234
:1000E9000367FEF45295EE4296EF640370431203E0
:1000F9004EFE700B900001120367F452B152B2EE3A
:10010900B4010B90000112036742B1F452B2120319
:100119004EB4020A90000112036742B142B21203BF
:100129004EB4030D900001120367FEF452B1EE4282
:10013900B2EF6404704312034EFE700B900001127B
:100149000367F452B352B4EEB4010B9000011203E9
:100159006742B3F452B412034EB4020A900001127A
:10016900036742B342B412034EB4030D9000011267
:100179000367FEF452B3EE42B4EF64057043120311
:100189004EFE700B900001120367F452C952CAEE79
:10019900B4010B90000112036742C9F452CA120359
:1001A9004EB4020A90000112036742C942CA1203FF
:1001B9004EB4030D900001120367FEF452C9EE42DA
:1001C900CAEF6406704312034EFE700B90000112D1
:1001D9000367F452CB52CCEEB4010B900001120329
:1001E9006742CBF452CC12034EB4020A90000112BA
:1001F900036742CB42CC12034EB4030D90000112A7
:100209000367FEF452CBEE42CCEF6407704312034E
:100219004EFF700B900001120367F452E152E2EFB6
:10022900B4010B90000112036742E1F452E2120398
:100239004EB4020A90000112036742E142E212033E
:100249004EB4030D900001120367FFF452E1EF422F
:04025900E27F00221E
:1003C500D3EF9400EE940040120000007D0B7CBE3C
:0B03D500DCFEDDFCEF1F70E81E80E581
:0103E00022FA
:1003E1009000117403F0A374FFF07B017A0079117E
:0503F1007F0702000976
:0300000002025D9C
:0C025D00787FE4F6D8FD7581070202A44A
:10034E00BB010689828A83E0225002E722BBFE02AD
:09035E00E32289828A83E49322E0
:10036700BB010CE58229F582E5833AF583E022504B
:1003770006E92582F8E622BBFE06E92582F8E22295
:0D038700E58229F582E5833AF583E49322AF
:10026900020394E493A3F8E493A34003F68001F214
:1002790008DFF48029E493A3F85407240CC8C33396
:10028900C4540F4420C8834004F456800146F6DF65
:10029900E4800B01020408102040809003F6E47EFC
:1002A900019360BCA3FF543F30E509541FFEE4935A
:1002B900A360010ECF54C025E060A840B8E493A321
:1002C900FAE493A3F8E493A3C8C582C8CAC583CA4C
:1002D900F0A3C8C582C8CAC583CADFE9DEE780BE04
:0104090000F2
:00000001FF
