:1004400011083F065B4F666D7D077F6F777C395ED5
:03045000797100BF
:10042B001203E212045412046512025774082FF8D7
:05043B00E6F5F880F475
:10000300EFD3940740037F0122120376FED39403B8
:1000130040037F0222EF7041EE700B900001120348
:100023008FF452935294120376B4010B9000011291
:10003300038F4293F45294120376FEB4020A9000A3
:100043000112038F42934294EEB4030D9000011208
:10005300038FFEF45293EE4294EF64017043120354
:1000630076FE700B90000112038FF452915292EEC0
:10007300B4010B90000112038F4291F452921203C8
:1000830076B4020A90000112038F42914292120346
:1000930076B4030D90000112038FFEF45291EE42E9
:1000A30092EF64027043120376FE700B900001120C
:1000B300038FF452955296EEB4010B900001120394
:1000C3008F4295F45296120376B4020A90000112FD
:1000D300038F42954296120376B4030D90000112EA
:1000E300038FFEF45295EE4296EF640370431203BE
:1000F30076FE700B90000112038FF452B152B2EEF0
:10010300B4010B90000112038F42B1F452B21203F7
:1001130076B4020A90000112038F42B142B2120375
:1001230076B4030D90000112038FFEF452B1EE4238
:10013300B2EF64047043120376FE700B9000011259
:10014300038FF452B352B4EEB4010B9000011203C7
:100153008F42B3F452B4120376B4020A9000011230
:10016300038F42B342B4120376B4030D900001121D
:10017300038FFEF452B3EE42B4EF640570431203EF
:1001830076FE700B90000112038FF452C952CAEE2F
:10019300B4010B90000112038F42C9F452CA120337
:1001A30076B4020A90000112038F42C942CA1203B5
:1001B30076B4030D90000112038FFEF452C9EE4290
:1001C300CAEF64067043120376FE700B90000112AF
:1001D300038FF452CB52CCEEB4010B900001120307
:1001E3008F42CBF452CC120376B4020A9000011270
:1001F300038F42CB42CC120376B4030D900001125D
:10020300038FFEF452CBEE42CCEF6407704312032C
:1002130076FF700B90000112038FF452E152E2EF6C
:10022300B4010B90000112038F42E1F452E2120376
:1002330076B4020A90000112038F42E142E21203F4
:1002430076B4030D90000112038FFFF452E1EF42E5
:04025300E27F002224
:1003E200751903751AC07B007A007919E4FF1200AF
:1003F20003751903E4F51A751A187F0112000375C3
:100402001903E4F51A751A8E7F0212000375190397
:10041200E4F51A751A807F02120003751903E4F5D8
:090422001A751A347F020200036E
:10045400751903751AFF7B007A0079197F0702006A
:010464000394
:10046500751901751AFF7B007A0079197F0602005C
:010475000383
:10025700751910AFE8EF1203BC02941102A812023D
:10026700BC1402D01802992102AD2202C12402D582
:1002770028029E4102B24202C64402DA4802A38122
:1002870002B78202CB8402DF88000002E4E4F5199A
:10029700804E7519018049751902804475190380CC
:1002A7003F751904803A7519058035751906803030
:1002B700751907802B75190880267519098021750E
:1002C700190A801C75190B801775190C801275197E
:1002D7000D800D75190E800875190F80037519109B
:0202E700AF194D
:0102E90022F2
:030000000202EA0F
:0C02EA00787FE4F6D8FD75811A0203311C
:10037600BB010689828A83E0225002E722BBFE0285
:09038600E32289828A83E49322B8
:10038F00BB010CE58229F582E5833AF583E0225023
:10039F0006E92582F8E622BBFE06E92582F8E2226D
:0D03AF00E58229F582E5833AF583E4932287
:1003BC00D083D082F8E4937012740193700DA3A3D0
:1003CC0093F8740193F5828883E4737402936860E4
:0603DC00EFA3A3A380DFE4
:1002F60002042BE493A3F8E493A34003F68001F2EF
:1003060008DFF48029E493A3F85407240CC8C33308
:10031600C4540F4420C8834004F456800146F6DFD7
:10032600E4800B0102040810204080900440E47E23
:10033600019360BCA3FF543F30E509541FFEE493CC
:10034600A360010ECF54C025E060A840B8E493A393
:10035600FAE493A3F8E493A3C8C582C8CAC583CABE
:10036600F0A3C8C582C8CAC583CADFE9DEE780BE76
:0104530000A8
:00000001FF
