:10025C0012036B12037B1202B6C2EBC2EC30E8162F
:10026C00D2EBC2EC7FD07E0712034FC2EBC2EC7F05
:10027C00D07E0712034F30E916C2EBD2EC7FD07E52
:10028C000712034FC2EBC2EC7FD07E0712034F3034
:10029C00EACBD2EBD2EC7FD07E0712034FC2EBC27B
:0A02AC00EC7FD07E0712034F80B3F1
:1002B6007508037509C07B007A007908E4FF12000F
:1002C60008750803E4F5097509C07F011200037576
:1002D6000803E4F50975098E7F0212000375080309
:1002E600E4F509750980FB7A0079087F0312000896
:1002F600750803E4F509750934FB7A0079087F046B
:03030600020008EA
:05000300FB7A00790802
:10000800EFD3940740037F0122120309FED3940320
:1000180040037F0222EF7041EE700B900001120343
:1000280022F452935294120309B4010B9000011266
:1000380003224293F45294120309FEB4020A900078
:100048000112032242934294EEB4030D9000011270
:100058000322FEF45293EE4294EF640170431203BC
:1000680009FE700B900001120322F452915292EE95
:10007800B4010B9000011203224291F45292120330
:1000880009B4020A9000011203224291429212031B
:1000980009B4030D900001120322FEF45291EE42BE
:1000A80092EF64027043120309FE700B9000011274
:1000B8000322F452955296EEB4010B9000011203FC
:1000C800224295F45296120309B4020A90000112D2
:1000D800032242954296120309B4030D90000112BF
:1000E8000322FEF45295EE4296EF64037043120326
:1000F80009FE700B900001120322F452B152B2EEC5
:10010800B4010B90000112032242B1F452B212035F
:1001180009B4020A90000112032242B142B212034A
:1001280009B4030D900001120322FEF452B1EE420D
:10013800B2EF64047043120309FE700B90000112C1
:100148000322F452B352B4EEB4010B90000112032F
:100158002242B3F452B4120309B4020A9000011205
:10016800032242B342B4120309B4030D90000112F2
:100178000322FEF452B3EE42B4EF64057043120357
:1001880009FE700B900001120322F452C952CAEE04
:10019800B4010B90000112032242C9F452CA12039F
:1001A80009B4020A90000112032242C942CA12038A
:1001B80009B4030D900001120322FEF452C9EE4265
:1001C800CAEF64067043120309FE700B9000011217
:1001D8000322F452CB52CCEEB4010B90000112036F
:1001E8002242CBF452CC120309B4020A9000011245
:1001F800032242CB42CC120309B4030D9000011232
:100208000322FEF452CBEE42CCEF64077043120394
:1002180009FF700B900001120322F452E152E2EF41
:10022800B4010B90000112032242E1F452E21203DE
:1002380009B4020A90000112032242E142E21203C9
:1002480009B4030D900001120322FFF452E1EF42BA
:04025800E27F00221F
:10034F00D3EF9400EE940040120000007D0B7CBEB2
:0B035F00DCFEDDFCEF1F70E81E80E5F7
:01036A002270
:10036B00E4F508750907FB7A0079087F010200089C
:10037B00E4F508750918FB7A0079087F010200087B
:0300000002038B6D
:0C038B00787FE4F6D8FD75810902025C61
:10030900BB010689828A83E0225002E722BBFE02F2
:09031900E32289828A83E4932225
:10032200BB010CE58229F582E5833AF583E0225090
:1003320006E92582F8E622BBFE06E92582F8E222DA
:0D034200E58229F582E5833AF583E49322F4
:00000001FF
